{
  "_format": "hh-sol-artifact-1",
  "contractName": "FunctionsConsumer",
  "sourceName": "contracts/FunctionsConsumer.sol",
  "abi": [
    {
      "inputs": [
        {
          "internalType": "address",
          "name": "router",
          "type": "address"
        },
        {
          "internalType": "bytes32",
          "name": "_donId",
          "type": "bytes32"
        }
      ],
      "stateMutability": "nonpayable",
      "type": "constructor"
    },
    {
      "inputs": [],
      "name": "EmptyArgs",
      "type": "error"
    },
    {
      "inputs": [],
      "name": "EmptySource",
      "type": "error"
    },
    {
      "inputs": [],
      "name": "NoInlineSecrets",
      "type": "error"
    },
    {
      "inputs": [],
      "name": "OnlyRouterCanFulfill",
      "type": "error"
    },
    {
      "inputs": [
        {
          "internalType": "bytes32",
          "name": "requestId",
          "type": "bytes32"
        }
      ],
      "name": "UnexpectedRequestID",
      "type": "error"
    },
    {
      "anonymous": false,
      "inputs": [
        {
          "indexed": true,
          "internalType": "address",
          "name": "from",
          "type": "address"
        },
        {
          "indexed": true,
          "internalType": "address",
          "name": "to",
          "type": "address"
        }
      ],
      "name": "OwnershipTransferRequested",
      "type": "event"
    },
    {
      "anonymous": false,
      "inputs": [
        {
          "indexed": true,
          "internalType": "address",
          "name": "from",
          "type": "address"
        },
        {
          "indexed": true,
          "internalType": "address",
          "name": "to",
          "type": "address"
        }
      ],
      "name": "OwnershipTransferred",
      "type": "event"
    },
    {
      "anonymous": false,
      "inputs": [
        {
          "indexed": true,
          "internalType": "bytes32",
          "name": "id",
          "type": "bytes32"
        }
      ],
      "name": "RequestFulfilled",
      "type": "event"
    },
    {
      "anonymous": false,
      "inputs": [
        {
          "indexed": true,
          "internalType": "bytes32",
          "name": "id",
          "type": "bytes32"
        }
      ],
      "name": "RequestSent",
      "type": "event"
    },
    {
      "inputs": [],
      "name": "acceptOwnership",
      "outputs": [],
      "stateMutability": "nonpayable",
      "type": "function"
    },
    {
      "inputs": [],
      "name": "donId",
      "outputs": [
        {
          "internalType": "bytes32",
          "name": "",
          "type": "bytes32"
        }
      ],
      "stateMutability": "view",
      "type": "function"
    },
    {
      "inputs": [
        {
          "internalType": "bytes32",
          "name": "requestId",
          "type": "bytes32"
        },
        {
          "internalType": "bytes",
          "name": "response",
          "type": "bytes"
        },
        {
          "internalType": "bytes",
          "name": "err",
          "type": "bytes"
        }
      ],
      "name": "handleOracleFulfillment",
      "outputs": [],
      "stateMutability": "nonpayable",
      "type": "function"
    },
    {
      "inputs": [],
      "name": "owner",
      "outputs": [
        {
          "internalType": "address",
          "name": "",
          "type": "address"
        }
      ],
      "stateMutability": "view",
      "type": "function"
    },
    {
      "inputs": [],
      "name": "s_lastError",
      "outputs": [
        {
          "internalType": "bytes",
          "name": "",
          "type": "bytes"
        }
      ],
      "stateMutability": "view",
      "type": "function"
    },
    {
      "inputs": [],
      "name": "s_lastRequestId",
      "outputs": [
        {
          "internalType": "bytes32",
          "name": "",
          "type": "bytes32"
        }
      ],
      "stateMutability": "view",
      "type": "function"
    },
    {
      "inputs": [],
      "name": "s_lastResponse",
      "outputs": [
        {
          "internalType": "bytes",
          "name": "",
          "type": "bytes"
        }
      ],
      "stateMutability": "view",
      "type": "function"
    },
    {
      "inputs": [
        {
          "internalType": "string",
          "name": "source",
          "type": "string"
        },
        {
          "internalType": "string[]",
          "name": "args",
          "type": "string[]"
        },
        {
          "internalType": "bytes[]",
          "name": "bytesArgs",
          "type": "bytes[]"
        },
        {
          "internalType": "uint64",
          "name": "subscriptionId",
          "type": "uint64"
        },
        {
          "internalType": "uint32",
          "name": "callbackGasLimit",
          "type": "uint32"
        }
      ],
      "name": "sendRequest",
      "outputs": [],
      "stateMutability": "nonpayable",
      "type": "function"
    },
    {
      "inputs": [
        {
          "internalType": "bytes32",
          "name": "newDonId",
          "type": "bytes32"
        }
      ],
      "name": "setDonId",
      "outputs": [],
      "stateMutability": "nonpayable",
      "type": "function"
    },
    {
      "inputs": [
        {
          "internalType": "address",
          "name": "to",
          "type": "address"
        }
      ],
      "name": "transferOwnership",
      "outputs": [],
      "stateMutability": "nonpayable",
      "type": "function"
    }
  ],
  "bytecode": "0x60a06040523480156200001157600080fd5b5060405162002ad038038062002ad0833981810160405281019062000037919062000350565b33806000848073ffffffffffffffffffffffffffffffffffffffff1660808173ffffffffffffffffffffffffffffffffffffffff168152505050600073ffffffffffffffffffffffffffffffffffffffff168273ffffffffffffffffffffffffffffffffffffffff1603620000e3576040517f08c379a0000000000000000000000000000000000000000000000000000000008152600401620000da90620003f8565b60405180910390fd5b816000806101000a81548173ffffffffffffffffffffffffffffffffffffffff021916908373ffffffffffffffffffffffffffffffffffffffff160217905550600073ffffffffffffffffffffffffffffffffffffffff168173ffffffffffffffffffffffffffffffffffffffff16146200016a5762000169816200017c60201b60201c565b5b5050508060028190555050506200048c565b3373ffffffffffffffffffffffffffffffffffffffff168173ffffffffffffffffffffffffffffffffffffffff1603620001ed576040517f08c379a0000000000000000000000000000000000000000000000000000000008152600401620001e4906200046a565b60405180910390fd5b80600160006101000a81548173ffffffffffffffffffffffffffffffffffffffff021916908373ffffffffffffffffffffffffffffffffffffffff1602179055508073ffffffffffffffffffffffffffffffffffffffff1660008054906101000a900473ffffffffffffffffffffffffffffffffffffffff1673ffffffffffffffffffffffffffffffffffffffff167fed8889f560326eb138920d842192f0eb3dd22b4f139c87a2c57538e05bae127860405160405180910390a350565b600080fd5b600073ffffffffffffffffffffffffffffffffffffffff82169050919050565b6000620002dd82620002b0565b9050919050565b620002ef81620002d0565b8114620002fb57600080fd5b50565b6000815190506200030f81620002e4565b92915050565b6000819050919050565b6200032a8162000315565b81146200033657600080fd5b50565b6000815190506200034a816200031f565b92915050565b600080604083850312156200036a5762000369620002ab565b5b60006200037a85828601620002fe565b92505060206200038d8582860162000339565b9150509250929050565b600082825260208201905092915050565b7f43616e6e6f7420736574206f776e657220746f207a65726f0000000000000000600082015250565b6000620003e060188362000397565b9150620003ed82620003a8565b602082019050919050565b600060208201905081810360008301526200041381620003d1565b9050919050565b7f43616e6e6f74207472616e7366657220746f2073656c66000000000000000000600082015250565b60006200045260178362000397565b91506200045f826200041a565b602082019050919050565b60006020820190508181036000830152620004858162000443565b9050919050565b608051612621620004af600039600081816101b50152610cc201526126216000f3fe608060405234801561001057600080fd5b506004361061009e5760003560e01c80638da5cb5b116100665780638da5cb5b146101215780638dbe7b9d1461013f578063b1e217491461015d578063e1e703191461017b578063f2fde38b146101975761009e565b80630ca76175146100a35780633944ea3a146100bf5780634b0795a8146100dd57806378ca5de7146100fb57806379ba509714610117575b600080fd5b6100bd60048036038101906100b89190611683565b6101b3565b005b6100c7610275565b6040516100d4919061178d565b60405180910390f35b6100e5610303565b6040516100f2919061178d565b60405180910390f35b610115600480360381019061011091906117af565b610391565b005b61011f6103a3565b005b610129610538565b604051610136919061181d565b60405180910390f35b610147610561565b6040516101549190611847565b60405180910390f35b610165610567565b6040516101729190611847565b60405180910390f35b610195600480360381019061019091906119ea565b61056d565b005b6101b160048036038101906101ac9190611af2565b610658565b005b7f000000000000000000000000000000000000000000000000000000000000000073ffffffffffffffffffffffffffffffffffffffff163373ffffffffffffffffffffffffffffffffffffffff1614610238576040517fc6829f8300000000000000000000000000000000000000000000000000000000815260040160405180910390fd5b61024383838361066c565b827f85e1543bf2f84fe80c6badbce3648c8539ad1df4d2b3d822938ca0538be727e660405160405180910390a2505050565b6004805461028290611b4e565b80601f01602080910402602001604051908101604052809291908181526020018280546102ae90611b4e565b80156102fb5780601f106102d0576101008083540402835291602001916102fb565b820191906000526020600020905b8154815290600101906020018083116102de57829003601f168201915b505050505081565b6005805461031090611b4e565b80601f016020809104026020016040519081016040528092919081815260200182805461033c90611b4e565b80156103895780601f1061035e57610100808354040283529160200191610389565b820191906000526020600020905b81548152906001019060200180831161036c57829003601f168201915b505050505081565b6103996106d7565b8060028190555050565b600160009054906101000a900473ffffffffffffffffffffffffffffffffffffffff1673ffffffffffffffffffffffffffffffffffffffff163373ffffffffffffffffffffffffffffffffffffffff1614610433576040517f08c379a000000000000000000000000000000000000000000000000000000000815260040161042a90611bdc565b60405180910390fd5b60008060009054906101000a900473ffffffffffffffffffffffffffffffffffffffff169050336000806101000a81548173ffffffffffffffffffffffffffffffffffffffff021916908373ffffffffffffffffffffffffffffffffffffffff1602179055506000600160006101000a81548173ffffffffffffffffffffffffffffffffffffffff021916908373ffffffffffffffffffffffffffffffffffffffff1602179055503373ffffffffffffffffffffffffffffffffffffffff168173ffffffffffffffffffffffffffffffffffffffff167f8be0079c531659141344cd1fd0a4f28419497f9722a3daafe3b4186f6b6457e060405160405180910390a350565b60008060009054906101000a900473ffffffffffffffffffffffffffffffffffffffff16905090565b60025481565b60035481565b6105756106d7565b61057d611447565b6105d96000808b8b8080601f016020809104026020016040519081016040528093929190818152602001838380828437600081840152601f19601f8201169050808301925050505050505084610767909392919063ffffffff16565b6000878790501115610605576106048787906105f59190611d50565b8261081190919063ffffffff16565b5b6000858590501115610631576106308585906106219190611e18565b8261085990919063ffffffff16565b5b61064761063d826108a1565b8484600254610cbd565b600381905550505050505050505050565b6106606106d7565b61066981610da0565b50565b82600354146106b257826040517fd068bf5b0000000000000000000000000000000000000000000000000000000081526004016106a99190611847565b60405180910390fd5b81600490816106c19190611fe3565b5080600590816106d19190611fe3565b50505050565b60008054906101000a900473ffffffffffffffffffffffffffffffffffffffff1673ffffffffffffffffffffffffffffffffffffffff163373ffffffffffffffffffffffffffffffffffffffff1614610765576040517f08c379a000000000000000000000000000000000000000000000000000000000815260040161075c90612101565b60405180910390fd5b565b60008151036107a2576040517f22ce3edd00000000000000000000000000000000000000000000000000000000815260040160405180910390fd5b82846000019060028111156107ba576107b9612121565b5b908160028111156107ce576107cd612121565b5b8152505081846040019060008111156107ea576107e9612121565b5b908160008111156107fe576107fd612121565b5b8152505080846060018190525050505050565b600081510361084c576040517ffe936cb700000000000000000000000000000000000000000000000000000000815260040160405180910390fd5b808260a001819052505050565b6000815103610894576040517ffe936cb700000000000000000000000000000000000000000000000000000000815260040160405180910390fd5b808260c001819052505050565b606060006108b0610100610ecc565b90506108fa6040518060400160405280600c81526020017f636f64654c6f636174696f6e000000000000000000000000000000000000000081525082610ef390919063ffffffff16565b6109238360000151600281111561091457610913612121565b5b82610f1c90919063ffffffff16565b61096b6040518060400160405280600881526020017f6c616e677561676500000000000000000000000000000000000000000000000081525082610ef390919063ffffffff16565b6109948360400151600081111561098557610984612121565b5b82610f1c90919063ffffffff16565b6109dc6040518060400160405280600681526020017f736f75726365000000000000000000000000000000000000000000000000000081525082610ef390919063ffffffff16565b6109f3836060015182610ef390919063ffffffff16565b60008360a00151511115610aaf57610a496040518060400160405280600481526020017f617267730000000000000000000000000000000000000000000000000000000081525082610ef390919063ffffffff16565b610a5281610f6c565b60005b8360a0015151811015610aa457610a938460a001518281518110610a7c57610a7b612150565b5b602002602001015183610ef390919063ffffffff16565b80610a9d906121ae565b9050610a55565b50610aae81610f94565b5b60008360800151511115610bf05760006002811115610ad157610ad0612121565b5b83602001516002811115610ae857610ae7612121565b5b03610b1f576040517fa80d31f700000000000000000000000000000000000000000000000000000000815260040160405180910390fd5b610b676040518060400160405280600f81526020017f736563726574734c6f636174696f6e000000000000000000000000000000000081525082610ef390919063ffffffff16565b610b9083602001516002811115610b8157610b80612121565b5b82610f1c90919063ffffffff16565b610bd86040518060400160405280600781526020017f736563726574730000000000000000000000000000000000000000000000000081525082610ef390919063ffffffff16565b610bef836080015182610fbc90919063ffffffff16565b5b60008360c00151511115610cac57610c466040518060400160405280600981526020017f627974657341726773000000000000000000000000000000000000000000000081525082610ef390919063ffffffff16565b610c4f81610f6c565b60005b8360c0015151811015610ca157610c908460c001518281518110610c7957610c78612150565b5b602002602001015183610fbc90919063ffffffff16565b80610c9a906121ae565b9050610c52565b50610cab81610f94565b5b806000015160000151915050919050565b6000807f000000000000000000000000000000000000000000000000000000000000000073ffffffffffffffffffffffffffffffffffffffff1663461d27628688600188886040518663ffffffff1660e01b8152600401610d22959493929190612231565b6020604051808303816000875af1158015610d41573d6000803e3d6000fd5b505050506040513d601f19601f82011682018060405250810190610d6591906122a0565b9050807f1131472297a800fee664d1d89cfa8f7676ff07189ecc53f80bbb5f4969099db860405160405180910390a280915050949350505050565b3373ffffffffffffffffffffffffffffffffffffffff168173ffffffffffffffffffffffffffffffffffffffff1603610e0e576040517f08c379a0000000000000000000000000000000000000000000000000000000008152600401610e0590612319565b60405180910390fd5b80600160006101000a81548173ffffffffffffffffffffffffffffffffffffffff021916908373ffffffffffffffffffffffffffffffffffffffff1602179055508073ffffffffffffffffffffffffffffffffffffffff1660008054906101000a900473ffffffffffffffffffffffffffffffffffffffff1673ffffffffffffffffffffffffffffffffffffffff167fed8889f560326eb138920d842192f0eb3dd22b4f139c87a2c57538e05bae127860405160405180910390a350565b610ed46114b9565b610ee2816000015183610fe5565b506000816020018181525050919050565b610f00826003835161105e565b610f1781836000015161120790919063ffffffff16565b505050565b610f3e60026005600660ff16901b17836000015161122390919063ffffffff16565b50610f688282604051602001610f549190612348565b604051602081830303815290604052610fbc565b5050565b610f7781600461128d565b600181602001818151610f8a9190612363565b9150818152505050565b610f9f81600761128d565b600181602001818151610fb29190612397565b9150818152505050565b610fc9826002835161105e565b610fe081836000015161120790919063ffffffff16565b505050565b610fed6114d9565b6000602083610ffc91906123fa565b146110285760208261100e91906123fa565b602061101a9190612397565b826110259190612363565b91505b81836020018181525050604051808452600081528281016020018181101561104f57600080fd5b80604052505082905092915050565b60178167ffffffffffffffff1611611099576110938160058460ff16901b60ff1617846000015161122390919063ffffffff16565b50611202565b60ff8167ffffffffffffffff16116110f7576110cc601860058460ff16901b17846000015161122390919063ffffffff16565b506110f18167ffffffffffffffff16600185600001516112b39092919063ffffffff16565b50611201565b61ffff8167ffffffffffffffff16116111565761112b601960058460ff16901b17846000015161122390919063ffffffff16565b506111508167ffffffffffffffff16600285600001516112b39092919063ffffffff16565b50611200565b63ffffffff8167ffffffffffffffff16116111b75761118c601a60058460ff16901b17846000015161122390919063ffffffff16565b506111b18167ffffffffffffffff16600485600001516112b39092919063ffffffff16565b506111ff565b6111d8601b60058460ff16901b17846000015161122390919063ffffffff16565b506111fd8167ffffffffffffffff16600885600001516112b39092919063ffffffff16565b505b5b5b5b505050565b61120f6114d9565b61121b83838451611340565b905092915050565b61122b6114d9565b6000836000015151905060006001826112449190612363565b9050846020015182106112685761126785600283611262919061242b565b611423565b5b84516020838201018581538151831115611280578282525b5050849250505092915050565b6112ae601f60058360ff16901b17836000015161122390919063ffffffff16565b505050565b6112bb6114d9565b60008460000151519050600081846112d39190612363565b905085602001518111156112f8576112f7866002836112f2919061242b565b611423565b5b600060018561010061130a91906125a0565b6113149190612397565b905086518281018783198251161781528151841115611331578382525b50508693505050509392505050565b6113486114d9565b825182111561135657600080fd5b600084600001515190506000838261136e9190612363565b90508560200151811115611393576113928660028361138d919061242b565b611423565b5b600080875180518560208301019350808511156113ae578482525b60208901925050505b602086106113f557805182526020826113d09190612363565b91506020816113df9190612363565b90506020866113ee9190612397565b95506113b7565b60006001876020036101000a0390508019825116818451168181178552505050879450505050509392505050565b6000826000015190506114368383610fe5565b506114418382611207565b50505050565b6040518060e001604052806000600281111561146657611465612121565b5b81526020016000600281111561147f5761147e612121565b5b815260200160008081111561149757611496612121565b5b8152602001606081526020016060815260200160608152602001606081525090565b60405180604001604052806114cc6114d9565b8152602001600081525090565b604051806040016040528060608152602001600081525090565b6000604051905090565b600080fd5b600080fd5b6000819050919050565b61151a81611507565b811461152557600080fd5b50565b60008135905061153781611511565b92915050565b600080fd5b600080fd5b6000601f19601f8301169050919050565b7f4e487b7100000000000000000000000000000000000000000000000000000000600052604160045260246000fd5b61159082611547565b810181811067ffffffffffffffff821117156115af576115ae611558565b5b80604052505050565b60006115c26114f3565b90506115ce8282611587565b919050565b600067ffffffffffffffff8211156115ee576115ed611558565b5b6115f782611547565b9050602081019050919050565b82818337600083830152505050565b6000611626611621846115d3565b6115b8565b90508281526020810184848401111561164257611641611542565b5b61164d848285611604565b509392505050565b600082601f83011261166a5761166961153d565b5b813561167a848260208601611613565b91505092915050565b60008060006060848603121561169c5761169b6114fd565b5b60006116aa86828701611528565b935050602084013567ffffffffffffffff8111156116cb576116ca611502565b5b6116d786828701611655565b925050604084013567ffffffffffffffff8111156116f8576116f7611502565b5b61170486828701611655565b9150509250925092565b600081519050919050565b600082825260208201905092915050565b60005b8381101561174857808201518184015260208101905061172d565b60008484015250505050565b600061175f8261170e565b6117698185611719565b935061177981856020860161172a565b61178281611547565b840191505092915050565b600060208201905081810360008301526117a78184611754565b905092915050565b6000602082840312156117c5576117c46114fd565b5b60006117d384828501611528565b91505092915050565b600073ffffffffffffffffffffffffffffffffffffffff82169050919050565b6000611807826117dc565b9050919050565b611817816117fc565b82525050565b6000602082019050611832600083018461180e565b92915050565b61184181611507565b82525050565b600060208201905061185c6000830184611838565b92915050565b600080fd5b600080fd5b60008083601f8401126118825761188161153d565b5b8235905067ffffffffffffffff81111561189f5761189e611862565b5b6020830191508360018202830111156118bb576118ba611867565b5b9250929050565b60008083601f8401126118d8576118d761153d565b5b8235905067ffffffffffffffff8111156118f5576118f4611862565b5b60208301915083602082028301111561191157611910611867565b5b9250929050565b60008083601f84011261192e5761192d61153d565b5b8235905067ffffffffffffffff81111561194b5761194a611862565b5b60208301915083602082028301111561196757611966611867565b5b9250929050565b600067ffffffffffffffff82169050919050565b61198b8161196e565b811461199657600080fd5b50565b6000813590506119a881611982565b92915050565b600063ffffffff82169050919050565b6119c7816119ae565b81146119d257600080fd5b50565b6000813590506119e4816119be565b92915050565b60008060008060008060008060a0898b031215611a0a57611a096114fd565b5b600089013567ffffffffffffffff811115611a2857611a27611502565b5b611a348b828c0161186c565b9850985050602089013567ffffffffffffffff811115611a5757611a56611502565b5b611a638b828c016118c2565b9650965050604089013567ffffffffffffffff811115611a8657611a85611502565b5b611a928b828c01611918565b94509450506060611aa58b828c01611999565b9250506080611ab68b828c016119d5565b9150509295985092959890939650565b611acf816117fc565b8114611ada57600080fd5b50565b600081359050611aec81611ac6565b92915050565b600060208284031215611b0857611b076114fd565b5b6000611b1684828501611add565b91505092915050565b7f4e487b7100000000000000000000000000000000000000000000000000000000600052602260045260246000fd5b60006002820490506001821680611b6657607f821691505b602082108103611b7957611b78611b1f565b5b50919050565b600082825260208201905092915050565b7f4d7573742062652070726f706f736564206f776e657200000000000000000000600082015250565b6000611bc6601683611b7f565b9150611bd182611b90565b602082019050919050565b60006020820190508181036000830152611bf581611bb9565b9050919050565b600067ffffffffffffffff821115611c1757611c16611558565b5b602082029050602081019050919050565b600067ffffffffffffffff821115611c4357611c42611558565b5b611c4c82611547565b9050602081019050919050565b6000611c6c611c6784611c28565b6115b8565b905082815260208101848484011115611c8857611c87611542565b5b611c93848285611604565b509392505050565b600082601f830112611cb057611caf61153d565b5b8135611cc0848260208601611c59565b91505092915050565b6000611cdc611cd784611bfc565b6115b8565b90508083825260208201905060208402830185811115611cff57611cfe611867565b5b835b81811015611d4657803567ffffffffffffffff811115611d2457611d2361153d565b5b808601611d318982611c9b565b85526020850194505050602081019050611d01565b5050509392505050565b6000611d5d368484611cc9565b905092915050565b600067ffffffffffffffff821115611d8057611d7f611558565b5b602082029050602081019050919050565b6000611da4611d9f84611d65565b6115b8565b90508083825260208201905060208402830185811115611dc757611dc6611867565b5b835b81811015611e0e57803567ffffffffffffffff811115611dec57611deb61153d565b5b808601611df98982611655565b85526020850194505050602081019050611dc9565b5050509392505050565b6000611e25368484611d91565b905092915050565b60008190508160005260206000209050919050565b60006020601f8301049050919050565b600082821b905092915050565b600060088302611e8f7fffffffffffffffffffffffffffffffffffffffffffffffffffffffffffffffff82611e52565b611e998683611e52565b95508019841693508086168417925050509392505050565b6000819050919050565b6000819050919050565b6000611ee0611edb611ed684611eb1565b611ebb565b611eb1565b9050919050565b6000819050919050565b611efa83611ec5565b611f0e611f0682611ee7565b848454611e5f565b825550505050565b600090565b611f23611f16565b611f2e818484611ef1565b505050565b5b81811015611f5257611f47600082611f1b565b600181019050611f34565b5050565b601f821115611f9757611f6881611e2d565b611f7184611e42565b81016020851015611f80578190505b611f94611f8c85611e42565b830182611f33565b50505b505050565b600082821c905092915050565b6000611fba60001984600802611f9c565b1980831691505092915050565b6000611fd38383611fa9565b9150826002028217905092915050565b611fec8261170e565b67ffffffffffffffff81111561200557612004611558565b5b61200f8254611b4e565b61201a828285611f56565b600060209050601f83116001811461204d576000841561203b578287015190505b6120458582611fc7565b8655506120ad565b601f19841661205b86611e2d565b60005b828110156120835784890151825560018201915060208501945060208101905061205e565b868310156120a0578489015161209c601f891682611fa9565b8355505b6001600288020188555050505b505050505050565b7f4f6e6c792063616c6c61626c65206279206f776e657200000000000000000000600082015250565b60006120eb601683611b7f565b91506120f6826120b5565b602082019050919050565b6000602082019050818103600083015261211a816120de565b9050919050565b7f4e487b7100000000000000000000000000000000000000000000000000000000600052602160045260246000fd5b7f4e487b7100000000000000000000000000000000000000000000000000000000600052603260045260246000fd5b7f4e487b7100000000000000000000000000000000000000000000000000000000600052601160045260246000fd5b60006121b982611eb1565b91507fffffffffffffffffffffffffffffffffffffffffffffffffffffffffffffffff82036121eb576121ea61217f565b5b600182019050919050565b6121ff8161196e565b82525050565b600061ffff82169050919050565b61221c81612205565b82525050565b61222b816119ae565b82525050565b600060a08201905061224660008301886121f6565b81810360208301526122588187611754565b90506122676040830186612213565b6122746060830185612222565b6122816080830184611838565b9695505050505050565b60008151905061229a81611511565b92915050565b6000602082840312156122b6576122b56114fd565b5b60006122c48482850161228b565b91505092915050565b7f43616e6e6f74207472616e7366657220746f2073656c66000000000000000000600082015250565b6000612303601783611b7f565b915061230e826122cd565b602082019050919050565b60006020820190508181036000830152612332816122f6565b9050919050565b61234281611eb1565b82525050565b600060208201905061235d6000830184612339565b92915050565b600061236e82611eb1565b915061237983611eb1565b92508282019050808211156123915761239061217f565b5b92915050565b60006123a282611eb1565b91506123ad83611eb1565b92508282039050818111156123c5576123c461217f565b5b92915050565b7f4e487b7100000000000000000000000000000000000000000000000000000000600052601260045260246000fd5b600061240582611eb1565b915061241083611eb1565b9250826124205761241f6123cb565b5b828206905092915050565b600061243682611eb1565b915061244183611eb1565b925082820261244f81611eb1565b915082820484148315176124665761246561217f565b5b5092915050565b60008160011c9050919050565b6000808291508390505b60018511156124c4578086048111156124a05761249f61217f565b5b60018516156124af5780820291505b80810290506124bd8561246d565b9450612484565b94509492505050565b6000826124dd5760019050612599565b816124eb5760009050612599565b8160018114612501576002811461250b5761253a565b6001915050612599565b60ff84111561251d5761251c61217f565b5b8360020a9150848211156125345761253361217f565b5b50612599565b5060208310610133831016604e8410600b841016171561256f5782820a90508381111561256a5761256961217f565b5b612599565b61257c848484600161247a565b925090508184048111156125935761259261217f565b5b81810290505b9392505050565b60006125ab82611eb1565b91506125b683611eb1565b92506125e37fffffffffffffffffffffffffffffffffffffffffffffffffffffffffffffffff84846124cd565b90509291505056fea2646970667358221220c725f9d03b1f1f4b03e11ece3906b4869951e5095a5f18247ff616ce04967b1064736f6c63430008130033",
  "linkReferences": {},
  "deployedLinkReferences": {}
}